:100000000C9434000C943E000C943E000C943E0082
:100010000C943E000C943E000C943E000C943E0068
:100020000C943E000C943E000C943E000C943E0058
:100030000C943E000C943E000C943E000C943E0048
:100040000C943E000C943E000C943E000C943E0038
:100050000C943E000C943E000C943E000C943E0028
:100060000C943E000C943E0011241FBECFEFD8E04C
:10007000DEBFCDBF0E9452000C9475000C940000AE
:100080009093C5008093C40088E18093C1008EE006
:100090008093C20008959091C00095FFFCCF80939B
:1000A000C60008951F938FE190E00E944000259ABA
:1000B00085B190E2892785B92098289A80E090E060
:1000C00010E202C080E090E0189B0BC0009731F472
:1000D00085B1812785B98CE30E944B0081E090E0D7
:0E00E000F3CF23B120FFEECFEFCFF894FFCF88
:00000001FF
