:100000000C9434000C943E000C943E000C943E0082
:100010000C943E000C943E000C943E000C943E0068
:100020000C943E000C943E000C943E000C943E0058
:100030000C943E000C943E000C943E000C943E0048
:100040000C943E000C943E000C943E000C943E0038
:100050000C943E000C943E000C943E000C943E0028
:100060000C943E000C943E0011241FBECFEFD8E04C
:10007000DEBFCDBF0E944B000C945E000C940000CC
:100080009093C5008093C40088E18093C1008EE006
:100090008093C20008958FE190E00E944000259A6D
:1000A00085B190E2892785B98091C00087FFFCCF98
:1000B0008091C6008C33C1F785B1F4CFF894FFCF9F
:00000001FF
